{"contracts/VeriDoc.sol":{"VeriDoc":{"abi":[{"anonymous":false,"inputs":[{"indexed":true,"internalType":"bytes32","name":"documentHash","type":"bytes32"},{"indexed":true,"internalType":"address","name":"owner","type":"address"},{"indexed":true,"internalType":"address","name":"grantee","type":"address"}],"name":"AccessGranted","type":"event"},{"anonymous":false,"inputs":[{"indexed":true,"internalType":"bytes32","name":"documentHash","type":"bytes32"},{"indexed":true,"internalType":"address","name":"owner","type":"address"},{"indexed":true,"internalType":"address","name":"grantee","type":"address"}],"name":"AccessRevoked","type":"event"},{"anonymous":false,"inputs":[{"indexed":true,"internalType":"bytes32","name":"documentHash","type":"bytes32"},{"indexed":true,"internalType":"address","name":"owner","type":"address"},{"indexed":false,"internalType":"uint256","name":"timestamp","type":"uint256"},{"indexed":false,"internalType":"string","name":"title","type":"string"}],"name":"DocumentNotarized","type":"event"},{"inputs":[{"internalType":"bytes32","name":"","type":"bytes32"}],"name":"documents","outputs":[{"internalType":"address","name":"owner","type":"address"},{"internalType":"uint256","name":"timestamp","type":"uint256"},{"internalType":"string","name":"title","type":"string"},{"internalType":"bool","name":"exists","type":"bool"}],"stateMutability":"view","type":"function"},{"inputs":[{"internalType":"bytes32","name":"_documentHash","type":"bytes32"}],"name":"getDocumentDetails","outputs":[{"internalType":"address","name":"owner","type":"address"},{"internalType":"uint256","name":"timestamp","type":"uint256"},{"internalType":"string","name":"title","type":"string"}],"stateMutability":"view","type":"function"},{"inputs":[{"internalType":"bytes32","name":"_documentHash","type":"bytes32"},{"internalType":"address","name":"_grantee","type":"address"}],"name":"grantAccess","outputs":[],"stateMutability":"nonpayable","type":"function"},{"inputs":[{"internalType":"bytes32","name":"","type":"bytes32"},{"internalType":"address","name":"","type":"address"}],"name":"grantedAccess","outputs":[{"internalType":"bool","name":"","type":"bool"}],"stateMutability":"view","type":"function"},{"inputs":[{"internalType":"bytes32","name":"_documentHash","type":"bytes32"},{"internalType":"address","name":"_user","type":"address"}],"name":"hasAccess","outputs":[{"internalType":"bool","name":"","type":"bool"}],"stateMutability":"view","type":"function"},{"inputs":[{"internalType":"bytes32","name":"_documentHash","type":"bytes32"},{"internalType":"string","name":"_title","type":"string"}],"name":"notarizeDocument","outputs":[],"stateMutability":"nonpayable","type":"function"},{"inputs":[{"internalType":"bytes32","name":"_documentHash","type":"bytes32"},{"internalType":"address","name":"_grantee","type":"address"}],"name":"revokeAccess","outputs":[],"stateMutability":"nonpayable","type":"function"}],"evm":{"bytecode":{"linkReferences":{},"object":"608060405234801561001057600080fd5b50611598806100206000396000f3fe608060405234801561001057600080fd5b506004361061007d5760003560e01c80638d53b2081161005b5780638d53b208146101015780638e4d0f401461011d578063ad3e04201461014f578063ba3e92f31461016b5761007d565b80632b2805db1461008257806340554c3a146100b557806383177db3146100d1575b600080fd5b61009c60048036038101906100979190610bd2565b61019b565b6040516100ac9493929190610d04565b60405180910390f35b6100cf60048036038101906100ca9190610d7c565b610280565b005b6100eb60048036038101906100e69190610d7c565b6104ea565b6040516100f89190610dbc565b60405180910390f35b61011b60048036038101906101169190610d7c565b6105b4565b005b61013760048036038101906101329190610bd2565b61081e565b60405161014693929190610dd7565b60405180910390f35b61016960048036038101906101649190610f4a565b610963565b005b61018560048036038101906101809190610d7c565b610b59565b6040516101929190610dbc565b60405180910390f35b60006020528060005260406000206000915090508060000160009054906101000a900473ffffffffffffffffffffffffffffffffffffffff16908060010154908060020180546101ea90610fd5565b80601f016020809104026020016040519081016040528092919081815260200182805461021690610fd5565b80156102635780601f1061023857610100808354040283529160200191610263565b820191906000526020600020905b81548152906001019060200180831161024657829003601f168201915b5050505050908060030160009054906101000a900460ff16905084565b60008083815260200190815260200160002060030160009054906101000a900460ff166102e2576040517f08c379a00000000000000000000000000000000000000000000000000000000081526004016102d990611052565b60405180910390fd5b3373ffffffffffffffffffffffffffffffffffffffff1660008084815260200190815260200160002060000160009054906101000a900473ffffffffffffffffffffffffffffffffffffffff1673ffffffffffffffffffffffffffffffffffffffff1614610385576040517f08c379a000000000000000000000000000000000000000000000000000000000815260040161037c906110be565b60405180910390fd5b6001600083815260200190815260200160002060008273ffffffffffffffffffffffffffffffffffffffff1673ffffffffffffffffffffffffffffffffffffffff16815260200190815260200160002060009054906101000a900460ff1615610423576040517f08c379a000000000000000000000000000000000000000000000000000000000815260040161041a9061112a565b60405180910390fd5b600180600084815260200190815260200160002060008373ffffffffffffffffffffffffffffffffffffffff1673ffffffffffffffffffffffffffffffffffffffff16815260200190815260200160002060006101000a81548160ff0219169083151502179055508073ffffffffffffffffffffffffffffffffffffffff163373ffffffffffffffffffffffffffffffffffffffff16837f7aeffe35f64b55a7c424c5fccc3fba0f3ac4ebd764cc737855b8734834458f2b60405160405180910390a45050565b600080600084815260200190815260200160002060030160009054906101000a900460ff1661054e576040517f08c379a000000000000000000000000000000000000000000000000000000000815260040161054590611052565b60405180910390fd5b6001600084815260200190815260200160002060008373ffffffffffffffffffffffffffffffffffffffff1673ffffffffffffffffffffffffffffffffffffffff16815260200190815260200160002060009054906101000a900460ff16905092915050565b60008083815260200190815260200160002060030160009054906101000a900460ff16610616576040517f08c379a000000000000000000000000000000000000000000000000000000000815260040161060d90611052565b60405180910390fd5b3373ffffffffffffffffffffffffffffffffffffffff1660008084815260200190815260200160002060000160009054906101000a900473ffffffffffffffffffffffffffffffffffffffff1673ffffffffffffffffffffffffffffffffffffffff16146106b9576040517f08c379a00000000000000000000000000000000000000000000000000000000081526004016106b0906111bc565b60405180910390fd5b6001600083815260200190815260200160002060008273ffffffffffffffffffffffffffffffffffffffff1673ffffffffffffffffffffffffffffffffffffffff16815260200190815260200160002060009054906101000a900460ff16610756576040517f08c379a000000000000000000000000000000000000000000000000000000000815260040161074d90611228565b60405180910390fd5b60006001600084815260200190815260200160002060008373ffffffffffffffffffffffffffffffffffffffff1673ffffffffffffffffffffffffffffffffffffffff16815260200190815260200160002060006101000a81548160ff0219169083151502179055508073ffffffffffffffffffffffffffffffffffffffff163373ffffffffffffffffffffffffffffffffffffffff16837ffab19bdeacf1ea13315b1da3f79a3403fe4f16793b6a03eeff9e0bbbea24fe5f60405160405180910390a45050565b600080606060008085815260200190815260200160002060030160009054906101000a900460ff16610885576040517f08c379a000000000000000000000000000000000000000000000000000000000815260040161087c90611052565b60405180910390fd5b600080600086815260200190815260200160002090508060000160009054906101000a900473ffffffffffffffffffffffffffffffffffffffff168160010154826002018080546108d590610fd5565b80601f016020809104026020016040519081016040528092919081815260200182805461090190610fd5565b801561094e5780601f106109235761010080835404028352916020019161094e565b820191906000526020600020905b81548152906001019060200180831161093157829003601f168201915b50505050509050935093509350509193909250565b60008083815260200190815260200160002060030160009054906101000a900460ff16156109c6576040517f08c379a00000000000000000000000000000000000000000000000000000000081526004016109bd90611294565b60405180910390fd5b60405180608001604052803373ffffffffffffffffffffffffffffffffffffffff1681526020014281526020018281526020016001151581525060008084815260200190815260200160002060008201518160000160006101000a81548173ffffffffffffffffffffffffffffffffffffffff021916908373ffffffffffffffffffffffffffffffffffffffff160217905550602082015181600101556040820151816002019081610a789190611460565b5060608201518160030160006101000a81548160ff021916908315150217905550905050600180600084815260200190815260200160002060003373ffffffffffffffffffffffffffffffffffffffff1673ffffffffffffffffffffffffffffffffffffffff16815260200190815260200160002060006101000a81548160ff0219169083151502179055503373ffffffffffffffffffffffffffffffffffffffff16827f75c41e431cea72fe4b16a192c07e674ddd0362c4cd0fdd702e38726661b3e8834284604051610b4d929190611532565b60405180910390a35050565b60016020528160005260406000206020528060005260406000206000915091509054906101000a900460ff1681565b6000604051905090565b600080fd5b600080fd5b6000819050919050565b610baf81610b9c565b8114610bba57600080fd5b50565b600081359050610bcc81610ba6565b92915050565b600060208284031215610be857610be7610b92565b5b6000610bf684828501610bbd565b91505092915050565b600073ffffffffffffffffffffffffffffffffffffffff82169050919050565b6000610c2a82610bff565b9050919050565b610c3a81610c1f565b82525050565b6000819050919050565b610c5381610c40565b82525050565b600081519050919050565b600082825260208201905092915050565b60005b83811015610c93578082015181840152602081019050610c78565b60008484015250505050565b6000601f19601f8301169050919050565b6000610cbb82610c59565b610cc58185610c64565b9350610cd5818560208601610c75565b610cde81610c9f565b840191505092915050565b60008115159050919050565b610cfe81610ce9565b82525050565b6000608082019050610d196000830187610c31565b610d266020830186610c4a565b8181036040830152610d388185610cb0565b9050610d476060830184610cf5565b95945050505050565b610d5981610c1f565b8114610d6457600080fd5b50565b600081359050610d7681610d50565b92915050565b60008060408385031215610d9357610d92610b92565b5b6000610da185828601610bbd565b9250506020610db285828601610d67565b9150509250929050565b6000602082019050610dd16000830184610cf5565b92915050565b6000606082019050610dec6000830186610c31565b610df96020830185610c4a565b8181036040830152610e0b8184610cb0565b9050949350505050565b600080fd5b600080fd5b7f4e487b7100000000000000000000000000000000000000000000000000000000600052604160045260246000fd5b610e5782610c9f565b810181811067ffffffffffffffff82111715610e7657610e75610e1f565b5b80604052505050565b6000610e89610b88565b9050610e958282610e4e565b919050565b600067ffffffffffffffff821115610eb557610eb4610e1f565b5b610ebe82610c9f565b9050602081019050919050565b82818337600083830152505050565b6000610eed610ee884610e9a565b610e7f565b905082815260208101848484011115610f0957610f08610e1a565b5b610f14848285610ecb565b509392505050565b600082601f830112610f3157610f30610e15565b5b8135610f41848260208601610eda565b91505092915050565b60008060408385031215610f6157610f60610b92565b5b6000610f6f85828601610bbd565b925050602083013567ffffffffffffffff811115610f9057610f8f610b97565b5b610f9c85828601610f1c565b9150509250929050565b7f4e487b7100000000000000000000000000000000000000000000000000000000600052602260045260246000fd5b60006002820490506001821680610fed57607f821691505b60208210810361100057610fff610fa6565b5b50919050565b7f446f63756d656e74206e6f7420666f756e642e00000000000000000000000000600082015250565b600061103c601383610c64565b915061104782611006565b602082019050919050565b6000602082019050818103600083015261106b8161102f565b9050919050565b7f4f6e6c7920746865206f776e65722063616e206772616e74206163636573732e600082015250565b60006110a8602083610c64565b91506110b382611072565b602082019050919050565b600060208201905081810360008301526110d78161109b565b9050919050565b7f41636365737320616c7265616479206772616e7465642e000000000000000000600082015250565b6000611114601783610c64565b915061111f826110de565b602082019050919050565b6000602082019050818103600083015261114381611107565b9050919050565b7f4f6e6c7920746865206f776e65722063616e207265766f6b652061636365737360008201527f2e00000000000000000000000000000000000000000000000000000000000000602082015250565b60006111a6602183610c64565b91506111b18261114a565b604082019050919050565b600060208201905081810360008301526111d581611199565b9050919050565b7f416363657373206e6f74206772616e7465642e00000000000000000000000000600082015250565b6000611212601383610c64565b915061121d826111dc565b602082019050919050565b6000602082019050818103600083015261124181611205565b9050919050565b7f446f63756d656e7420616c7265616479206e6f746172697a65642e0000000000600082015250565b600061127e601b83610c64565b915061128982611248565b602082019050919050565b600060208201905081810360008301526112ad81611271565b9050919050565b60008190508160005260206000209050919050565b60006020601f8301049050919050565b600082821b905092915050565b6000600883026113167fffffffffffffffffffffffffffffffffffffffffffffffffffffffffffffffff826112d9565b61132086836112d9565b95508019841693508086168417925050509392505050565b6000819050919050565b600061135d61135861135384610c40565b611338565b610c40565b9050919050565b6000819050919050565b61137783611342565b61138b61138382611364565b8484546112e6565b825550505050565b600090565b6113a0611393565b6113ab81848461136e565b505050565b5b818110156113cf576113c4600082611398565b6001810190506113b1565b5050565b601f821115611414576113e5816112b4565b6113ee846112c9565b810160208510156113fd578190505b611411611409856112c9565b8301826113b0565b50505b505050565b600082821c905092915050565b600061143760001984600802611419565b1980831691505092915050565b60006114508383611426565b9150826002028217905092915050565b61146982610c59565b67ffffffffffffffff81111561148257611481610e1f565b5b61148c8254610fd5565b6114978282856113d3565b600060209050601f8311600181146114ca57600084156114b8578287015190505b6114c28582611444565b86555061152a565b601f1984166114d8866112b4565b60005b82811015611500578489015182556001820191506020850194506020810190506114db565b8683101561151d5784890151611519601f891682611426565b8355505b6001600288020188555050505b505050505050565b60006040820190506115476000830185610c4a565b81810360208301526115598184610cb0565b9050939250505056fea26469706673582212204d12cebd39f7861a9d4c12fbf1a1c529d4db83bdd8a98d6f8b12c414f16d411364736f6c63430008110033","opcodes":"PUSH1 0x80 PUSH1 0x40 MSTORE CALLVALUE DUP1 ISZERO PUSH2 0x10 JUMPI PUSH1 0x0 DUP1 REVERT JUMPDEST POP PUSH2 0x1598 DUP1 PUSH2 0x20 PUSH1 0x0 CODECOPY PUSH1 0x0 RETURN INVALID PUSH1 0x80 PUSH1 0x40 MSTORE CALLVALUE DUP1 ISZERO PUSH2 0x10 JUMPI PUSH1 0x0 DUP1 REVERT JUMPDEST POP PUSH1 0x4 CALLDATASIZE LT PUSH2 0x7D JUMPI PUSH1 0x0 CALLDATALOAD PUSH1 0xE0 SHR DUP1 PUSH4 0x8D53B208 GT PUSH2 0x5B JUMPI DUP1 PUSH4 0x8D53B208 EQ PUSH2 0x101 JUMPI DUP1 PUSH4 0x8E4D0F40 EQ PUSH2 0x11D JUMPI DUP1 PUSH4 0xAD3E0420 EQ PUSH2 0x14F JUMPI DUP1 PUSH4 0xBA3E92F3 EQ PUSH2 0x16B JUMPI PUSH2 0x7D JUMP JUMPDEST DUP1 PUSH4 0x2B2805DB EQ PUSH2 0x82 JUMPI DUP1 PUSH4 0x40554C3A EQ PUSH2 0xB5 JUMPI DUP1 PUSH4 0x83177DB3 EQ PUSH2 0xD1 JUMPI JUMPDEST PUSH1 0x0 DUP1 REVERT JUMPDEST PUSH2 0x9C PUSH1 0x4 DUP1 CALLDATASIZE SUB DUP2 ADD SWAP1 PUSH2 0x97 SWAP2 SWAP1 PUSH2 0xBD2 JUMP JUMPDEST PUSH2 0x19B JUMP JUMPDEST PUSH1 0x40 MLOAD PUSH2 0xAC SWAP5 SWAP4 SWAP3 SWAP2 SWAP1 PUSH2 0xD04 JUMP JUMPDEST PUSH1 0x40 MLOAD DUP1 SWAP2 SUB SWAP1 RETURN JUMPDEST PUSH2 0xCF PUSH1 0x4 DUP1 CALLDATASIZE SUB DUP2 ADD SWAP1 PUSH2 0xCA SWAP2 SWAP1 PUSH2 0xD7C JUMP JUMPDEST PUSH2 0x280 JUMP JUMPDEST STOP JUMPDEST PUSH2 0xEB PUSH1 0x4 DUP1 CALLDATASIZE SUB DUP2 ADD SWAP1 PUSH2 0xE6 SWAP2 SWAP1 PUSH2 0xD7C JUMP JUMPDEST PUSH2 0x4EA JUMP JUMPDEST PUSH1 0x40 MLOAD PUSH2 0xF8 SWAP2 SWAP1 PUSH2 0xDBC JUMP JUMPDEST PUSH1 0x40 MLOAD DUP1 SWAP2 SUB SWAP1 RETURN JUMPDEST PUSH2 0x11B PUSH1 0x4 DUP1 CALLDATASIZE SUB DUP2 ADD SWAP1 PUSH2 0x116 SWAP2 SWAP1 PUSH2 0xD7C JUMP JUMPDEST PUSH2 0x5B4 JUMP JUMPDEST STOP JUMPDEST PUSH2 0x137 PUSH1 0x4 DUP1 CALLDATASIZE SUB DUP2 ADD SWAP1 PUSH2 0x132 SWAP2 SWAP1 PUSH2 0xBD2 JUMP JUMPDEST PUSH2 0x81E JUMP JUMPDEST PUSH1 0x40 MLOAD PUSH2 0x146 SWAP4 SWAP3 SWAP2 SWAP1 PUSH2 0xDD7 JUMP JUMPDEST PUSH1 0x40 MLOAD DUP1 SWAP2 SUB SWAP1 RETURN JUMPDEST PUSH2 0x169 PUSH1 0x4 DUP1 CALLDATASIZE SUB DUP2 ADD SWAP1 PUSH2 0x164 SWAP2 SWAP1 PUSH2 0xF4A JUMP JUMPDEST PUSH2 0x963 JUMP JUMPDEST STOP JUMPDEST PUSH2 0x185 PUSH1 0x4 DUP1 CALLDATASIZE SUB DUP2 ADD SWAP1 PUSH2 0x180 SWAP2 SWAP1 PUSH2 0xD7C JUMP JUMPDEST PUSH2 0xB59 JUMP JUMPDEST PUSH1 0x40 MLOAD PUSH2 0x192 SWAP2 SWAP1 PUSH2 0xDBC JUMP JUMPDEST PUSH1 0x40 MLOAD DUP1 SWAP2 SUB SWAP1 RETURN JUMPDEST PUSH1 0x0 PUSH1 0x20 MSTORE DUP1 PUSH1 0x0 MSTORE PUSH1 0x40 PUSH1 0x0 KECCAK256 PUSH1 0x0 SWAP2 POP SWAP1 POP DUP1 PUSH1 0x0 ADD PUSH1 0x0 SWAP1 SLOAD SWAP1 PUSH2 0x100 EXP SWAP1 DIV PUSH20 0xFFFFFFFFFFFFFFFFFFFFFFFFFFFFFFFFFFFFFFFF AND SWAP1 DUP1 PUSH1 0x1 ADD SLOAD SWAP1 DUP1 PUSH1 0x2 ADD DUP1 SLOAD PUSH2 0x1EA SWAP1 PUSH2 0xFD5 JUMP JUMPDEST DUP1 PUSH1 0x1F ADD PUSH1 0x20 DUP1 SWAP2 DIV MUL PUSH1 0x20 ADD PUSH1 0x40 MLOAD SWAP1 DUP2 ADD PUSH1 0x40 MSTORE DUP1 SWAP3 SWAP2 SWAP1 DUP2 DUP2 MSTORE PUSH1 0x20 ADD DUP3 DUP1 SLOAD PUSH2 0x216 SWAP1 PUSH2 0xFD5 JUMP JUMPDEST DUP1 ISZERO PUSH2 0x263 JUMPI DUP1 PUSH1 0x1F LT PUSH2 0x238 JUMPI PUSH2 0x100 DUP1 DUP4 SLOAD DIV MUL DUP4 MSTORE SWAP2 PUSH1 0x20 ADD SWAP2 PUSH2 0x263 JUMP JUMPDEST DUP3 ADD SWAP2 SWAP1 PUSH1 0x0 MSTORE PUSH1 0x20 PUSH1 0x0 KECCAK256 SWAP1 JUMPDEST DUP2 SLOAD DUP2 MSTORE SWAP1 PUSH1 0x1 ADD SWAP1 PUSH1 0x20 ADD DUP1 DUP4 GT PUSH2 0x246 JUMPI DUP3 SWAP1 SUB PUSH1 0x1F AND DUP3 ADD SWAP2 JUMPDEST POP POP POP POP POP SWAP1 DUP1 PUSH1 0x3 ADD PUSH1 0x0 SWAP1 SLOAD SWAP1 PUSH2 0x100 EXP SWAP1 DIV PUSH1 0xFF AND SWAP1 POP DUP5 JUMP JUMPDEST PUSH1 0x0 DUP1 DUP4 DUP2 MSTORE PUSH1 0x20 ADD SWAP1 DUP2 MSTORE PUSH1 0x20 ADD PUSH1 0x0 KECCAK256 PUSH1 0x3 ADD PUSH1 0x0 SWAP1 SLOAD SWAP1 PUSH2 0x100 EXP SWAP1 DIV PUSH1 0xFF AND PUSH2 0x2E2 JUMPI PUSH1 0x40 MLOAD PUSH32 0x8C379A000000000000000000000000000000000000000000000000000000000 DUP2 MSTORE PUSH1 0x4 ADD PUSH2 0x2D9 SWAP1 PUSH2 0x1052 JUMP JUMPDEST PUSH1 0x40 MLOAD DUP1 SWAP2 SUB SWAP1 REVERT JUMPDEST CALLER PUSH20 0xFFFFFFFFFFFFFFFFFFFFFFFFFFFFFFFFFFFFFFFF AND PUSH1 0x0 DUP1 DUP5 DUP2 MSTORE PUSH1 0x20 ADD SWAP1 DUP2 MSTORE PUSH1 0x20 ADD PUSH1 0x0 KECCAK256 PUSH1 0x0 ADD PUSH1 0x0 SWAP1 SLOAD SWAP1 PUSH2 0x100 EXP SWAP1 DIV PUSH20 0xFFFFFFFFFFFFFFFFFFFFFFFFFFFFFFFFFFFFFFFF AND PUSH20 0xFFFFFFFFFFFFFFFFFFFFFFFFFFFFFFFFFFFFFFFF AND EQ PUSH2 0x385 JUMPI PUSH1 0x40 MLOAD PUSH32 0x8C379A000000000000000000000000000000000000000000000000000000000 DUP2 MSTORE PUSH1 0x4 ADD PUSH2 0x37C SWAP1 PUSH2 0x10BE JUMP JUMPDEST PUSH1 0x40 MLOAD DUP1 SWAP2 SUB SWAP1 REVERT JUMPDEST PUSH1 0x1 PUSH1 0x0 DUP4 DUP2 MSTORE PUSH1 0x20 ADD SWAP1 DUP2 MSTORE PUSH1 0x20 ADD PUSH1 0x0 KECCAK256 PUSH1 0x0 DUP3 PUSH20 0xFFFFFFFFFFFFFFFFFFFFFFFFFFFFFFFFFFFFFFFF AND PUSH20 0xFFFFFFFFFFFFFFFFFFFFFFFFFFFFFFFFFFFFFFFF AND DUP2 MSTORE PUSH1 0x20 ADD SWAP1 DUP2 MSTORE PUSH1 0x20 ADD PUSH1 0x0 KECCAK256 PUSH1 0x0 SWAP1 SLOAD SWAP1 PUSH2 0x100 EXP SWAP1 DIV PUSH1 0xFF AND ISZERO PUSH2 0x423 JUMPI PUSH1 0x40 MLOAD PUSH32 0x8C379A000000000000000000000000000000000000000000000000000000000 DUP2 MSTORE PUSH1 0x4 ADD PUSH2 0x41A SWAP1 PUSH2 0x112A JUMP JUMPDEST PUSH1 0x40 MLOAD DUP1 SWAP2 SUB SWAP1 REVERT JUMPDEST PUSH1 0x1 DUP1 PUSH1 0x0 DUP5 DUP2 MSTORE PUSH1 0x20 ADD SWAP1 DUP2 MSTORE PUSH1 0x20 ADD PUSH1 0x0 KECCAK256 PUSH1 0x0 DUP4 PUSH20 0xFFFFFFFFFFFFFFFFFFFFFFFFFFFFFFFFFFFFFFFF AND PUSH20 0xFFFFFFFFFFFFFFFFFFFFFFFFFFFFFFFFFFFFFFFF AND DUP2 MSTORE PUSH1 0x20 ADD SWAP1 DUP2 MSTORE PUSH1 0x20 ADD PUSH1 0x0 KECCAK256 PUSH1 0x0 PUSH2 0x100 EXP DUP2 SLOAD DUP2 PUSH1 0xFF MUL NOT AND SWAP1 DUP4 ISZERO ISZERO MUL OR SWAP1 SSTORE POP DUP1 PUSH20 0xFFFFFFFFFFFFFFFFFFFFFFFFFFFFFFFFFFFFFFFF AND CALLER PUSH20 0xFFFFFFFFFFFFFFFFFFFFFFFFFFFFFFFFFFFFFFFF AND DUP4 PUSH32 0x7AEFFE35F64B55A7C424C5FCCC3FBA0F3AC4EBD764CC737855B8734834458F2B PUSH1 0x40 MLOAD PUSH1 0x40 MLOAD DUP1 SWAP2 SUB SWAP1 LOG4 POP POP JUMP JUMPDEST PUSH1 0x0 DUP1 PUSH1 0x0 DUP5 DUP2 MSTORE PUSH1 0x20 ADD SWAP1 DUP2 MSTORE PUSH1 0x20 ADD PUSH1 0x0 KECCAK256 PUSH1 0x3 ADD PUSH1 0x0 SWAP1 SLOAD SWAP1 PUSH2 0x100 EXP SWAP1 DIV PUSH1 0xFF AND PUSH2 0x54E JUMPI PUSH1 0x40 MLOAD PUSH32 0x8C379A000000000000000000000000000000000000000000000000000000000 DUP2 MSTORE PUSH1 0x4 ADD PUSH2 0x545 SWAP1 PUSH2 0x1052 JUMP JUMPDEST PUSH1 0x40 MLOAD DUP1 SWAP2 SUB SWAP1 REVERT JUMPDEST PUSH1 0x1 PUSH1 0x0 DUP5 DUP2 MSTORE PUSH1 0x20 ADD SWAP1 DUP2 MSTORE PUSH1 0x20 ADD PUSH1 0x0 KECCAK256 PUSH1 0x0 DUP4 PUSH20 0xFFFFFFFFFFFFFFFFFFFFFFFFFFFFFFFFFFFFFFFF AND PUSH20 0xFFFFFFFFFFFFFFFFFFFFFFFFFFFFFFFFFFFFFFFF AND DUP2 MSTORE PUSH1 0x20 ADD SWAP1 DUP2 MSTORE PUSH1 0x20 ADD PUSH1 0x0 KECCAK256 PUSH1 0x0 SWAP1 SLOAD SWAP1 PUSH2 0x100 EXP SWAP1 DIV PUSH1 0xFF AND SWAP1 POP SWAP3 SWAP2 POP POP JUMP JUMPDEST PUSH1 0x0 DUP1 DUP4 DUP2 MSTORE PUSH1 0x20 ADD SWAP1 DUP2 MSTORE PUSH1 0x20 ADD PUSH1 0x0 KECCAK256 PUSH1 0x3 ADD PUSH1 0x0 SWAP1 SLOAD SWAP1 PUSH2 0x100 EXP SWAP1 DIV PUSH1 0xFF AND PUSH2 0x616 JUMPI PUSH1 0x40 MLOAD PUSH32 0x8C379A000000000000000000000000000000000000000000000000000000000 DUP2 MSTORE PUSH1 0x4 ADD PUSH2 0x60D SWAP1 PUSH2 0x1052 JUMP JUMPDEST PUSH1 0x40 MLOAD DUP1 SWAP2 SUB SWAP1 REVERT JUMPDEST CALLER PUSH20 0xFFFFFFFFFFFFFFFFFFFFFFFFFFFFFFFFFFFFFFFF AND PUSH1 0x0 DUP1 DUP5 DUP2 MSTORE PUSH1 0x20 ADD SWAP1 DUP2 MSTORE PUSH1 0x20 ADD PUSH1 0x0 KECCAK256 PUSH1 0x0 ADD PUSH1 0x0 SWAP1 SLOAD SWAP1 PUSH2 0x100 EXP SWAP1 DIV PUSH20 0xFFFFFFFFFFFFFFFFFFFFFFFFFFFFFFFFFFFFFFFF AND PUSH20 0xFFFFFFFFFFFFFFFFFFFFFFFFFFFFFFFFFFFFFFFF AND EQ PUSH2 0x6B9 JUMPI PUSH1 0x40 MLOAD PUSH32 0x8C379A000000000000000000000000000000000000000000000000000000000 DUP2 MSTORE PUSH1 0x4 ADD PUSH2 0x6B0 SWAP1 PUSH2 0x11BC JUMP JUMPDEST PUSH1 0x40 MLOAD DUP1 SWAP2 SUB SWAP1 REVERT JUMPDEST PUSH1 0x1 PUSH1 0x0 DUP4 DUP2 MSTORE PUSH1 0x20 ADD SWAP1 DUP2 MSTORE PUSH1 0x20 ADD PUSH1 0x0 KECCAK256 PUSH1 0x0 DUP3 PUSH20 0xFFFFFFFFFFFFFFFFFFFFFFFFFFFFFFFFFFFFFFFF AND PUSH20 0xFFFFFFFFFFFFFFFFFFFFFFFFFFFFFFFFFFFFFFFF AND DUP2 MSTORE PUSH1 0x20 ADD SWAP1 DUP2 MSTORE PUSH1 0x20 ADD PUSH1 0x0 KECCAK256 PUSH1 0x0 SWAP1 SLOAD SWAP1 PUSH2 0x100 EXP SWAP1 DIV PUSH1 0xFF AND PUSH2 0x756 JUMPI PUSH1 0x40 MLOAD PUSH32 0x8C379A000000000000000000000000000000000000000000000000000000000 DUP2 MSTORE PUSH1 0x4 ADD PUSH2 0x74D SWAP1 PUSH2 0x1228 JUMP JUMPDEST PUSH1 0x40 MLOAD DUP1 SWAP2 SUB SWAP1 REVERT JUMPDEST PUSH1 0x0 PUSH1 0x1 PUSH1 0x0 DUP5 DUP2 MSTORE PUSH1 0x20 ADD SWAP1 DUP2 MSTORE PUSH1 0x20 ADD PUSH1 0x0 KECCAK256 PUSH1 0x0 DUP4 PUSH20 0xFFFFFFFFFFFFFFFFFFFFFFFFFFFFFFFFFFFFFFFF AND PUSH20 0xFFFFFFFFFFFFFFFFFFFFFFFFFFFFFFFFFFFFFFFF AND DUP2 MSTORE PUSH1 0x20 ADD SWAP1 DUP2 MSTORE PUSH1 0x20 ADD PUSH1 0x0 KECCAK256 PUSH1 0x0 PUSH2 0x100 EXP DUP2 SLOAD DUP2 PUSH1 0xFF MUL NOT AND SWAP1 DUP4 ISZERO ISZERO MUL OR SWAP1 SSTORE POP DUP1 PUSH20 0xFFFFFFFFFFFFFFFFFFFFFFFFFFFFFFFFFFFFFFFF AND CALLER PUSH20 0xFFFFFFFFFFFFFFFFFFFFFFFFFFFFFFFFFFFFFFFF AND DUP4 PUSH32 0xFAB19BDEACF1EA13315B1DA3F79A3403FE4F16793B6A03EEFF9E0BBBEA24FE5F PUSH1 0x40 MLOAD PUSH1 0x40 MLOAD DUP1 SWAP2 SUB SWAP1 LOG4 POP POP JUMP JUMPDEST PUSH1 0x0 DUP1 PUSH1 0x60 PUSH1 0x0 DUP1 DUP6 DUP2 MSTORE PUSH1 0x20 ADD SWAP1 DUP2 MSTORE PUSH1 0x20 ADD PUSH1 0x0 KECCAK256 PUSH1 0x3 ADD PUSH1 0x0 SWAP1 SLOAD SWAP1 PUSH2 0x100 EXP SWAP1 DIV PUSH1 0xFF AND PUSH2 0x885 JUMPI PUSH1 0x40 MLOAD PUSH32 0x8C379A000000000000000000000000000000000000000000000000000000000 DUP2 MSTORE PUSH1 0x4 ADD PUSH2 0x87C SWAP1 PUSH2 0x1052 JUMP JUMPDEST PUSH1 0x40 MLOAD DUP1 SWAP2 SUB SWAP1 REVERT JUMPDEST PUSH1 0x0 DUP1 PUSH1 0x0 DUP7 DUP2 MSTORE PUSH1 0x20 ADD SWAP1 DUP2 MSTORE PUSH1 0x20 ADD PUSH1 0x0 KECCAK256 SWAP1 POP DUP1 PUSH1 0x0 ADD PUSH1 0x0 SWAP1 SLOAD SWAP1 PUSH2 0x100 EXP SWAP1 DIV PUSH20 0xFFFFFFFFFFFFFFFFFFFFFFFFFFFFFFFFFFFFFFFF AND DUP2 PUSH1 0x1 ADD SLOAD DUP3 PUSH1 0x2 ADD DUP1 DUP1 SLOAD PUSH2 0x8D5 SWAP1 PUSH2 0xFD5 JUMP JUMPDEST DUP1 PUSH1 0x1F ADD PUSH1 0x20 DUP1 SWAP2 DIV MUL PUSH1 0x20 ADD PUSH1 0x40 MLOAD SWAP1 DUP2 ADD PUSH1 0x40 MSTORE DUP1 SWAP3 SWAP2 SWAP1 DUP2 DUP2 MSTORE PUSH1 0x20 ADD DUP3 DUP1 SLOAD PUSH2 0x901 SWAP1 PUSH2 0xFD5 JUMP JUMPDEST DUP1 ISZERO PUSH2 0x94E JUMPI DUP1 PUSH1 0x1F LT PUSH2 0x923 JUMPI PUSH2 0x100 DUP1 DUP4 SLOAD DIV MUL DUP4 MSTORE SWAP2 PUSH1 0x20 ADD SWAP2 PUSH2 0x94E JUMP JUMPDEST DUP3 ADD SWAP2 SWAP1 PUSH1 0x0 MSTORE PUSH1 0x20 PUSH1 0x0 KECCAK256 SWAP1 JUMPDEST DUP2 SLOAD DUP2 MSTORE SWAP1 PUSH1 0x1 ADD SWAP1 PUSH1 0x20 ADD DUP1 DUP4 GT PUSH2 0x931 JUMPI DUP3 SWAP1 SUB PUSH1 0x1F AND DUP3 ADD SWAP2 JUMPDEST POP POP POP POP POP SWAP1 POP SWAP4 POP SWAP4 POP SWAP4 POP POP SWAP2 SWAP4 SWAP1 SWAP3 POP JUMP JUMPDEST PUSH1 0x0 DUP1 DUP4 DUP2 MSTORE PUSH1 0x20 ADD SWAP1 DUP2 MSTORE PUSH1 0x20 ADD PUSH1 0x0 KECCAK256 PUSH1 0x3 ADD PUSH1 0x0 SWAP1 SLOAD SWAP1 PUSH2 0x100 EXP SWAP1 DIV PUSH1 0xFF AND ISZERO PUSH2 0x9C6 JUMPI PUSH1 0x40 MLOAD PUSH32 0x8C379A000000000000000000000000000000000000000000000000000000000 DUP2 MSTORE PUSH1 0x4 ADD PUSH2 0x9BD SWAP1 PUSH2 0x1294 JUMP JUMPDEST PUSH1 0x40 MLOAD DUP1 SWAP2 SUB SWAP1 REVERT JUMPDEST PUSH1 0x40 MLOAD DUP1 PUSH1 0x80 ADD PUSH1 0x40 MSTORE DUP1 CALLER PUSH20 0xFFFFFFFFFFFFFFFFFFFFFFFFFFFFFFFFFFFFFFFF AND DUP2 MSTORE PUSH1 0x20 ADD TIMESTAMP DUP2 MSTORE PUSH1 0x20 ADD DUP3 DUP2 MSTORE PUSH1 0x20 ADD PUSH1 0x1 ISZERO ISZERO DUP2 MSTORE POP PUSH1 0x0 DUP1 DUP5 DUP2 MSTORE PUSH1 0x20 ADD SWAP1 DUP2 MSTORE PUSH1 0x20 ADD PUSH1 0x0 KECCAK256 PUSH1 0x0 DUP3 ADD MLOAD DUP2 PUSH1 0x0 ADD PUSH1 0x0 PUSH2 0x100 EXP DUP2 SLOAD DUP2 PUSH20 0xFFFFFFFFFFFFFFFFFFFFFFFFFFFFFFFFFFFFFFFF MUL NOT AND SWAP1 DUP4 PUSH20 0xFFFFFFFFFFFFFFFFFFFFFFFFFFFFFFFFFFFFFFFF AND MUL OR SWAP1 SSTORE POP PUSH1 0x20 DUP3 ADD MLOAD DUP2 PUSH1 0x1 ADD SSTORE PUSH1 0x40 DUP3 ADD MLOAD DUP2 PUSH1 0x2 ADD SWAP1 DUP2 PUSH2 0xA78 SWAP2 SWAP1 PUSH2 0x1460 JUMP JUMPDEST POP PUSH1 0x60 DUP3 ADD MLOAD DUP2 PUSH1 0x3 ADD PUSH1 0x0 PUSH2 0x100 EXP DUP2 SLOAD DUP2 PUSH1 0xFF MUL NOT AND SWAP1 DUP4 ISZERO ISZERO MUL OR SWAP1 SSTORE POP SWAP1 POP POP PUSH1 0x1 DUP1 PUSH1 0x0 DUP5 DUP2 MSTORE PUSH1 0x20 ADD SWAP1 DUP2 MSTORE PUSH1 0x20 ADD PUSH1 0x0 KECCAK256 PUSH1 0x0 CALLER PUSH20 0xFFFFFFFFFFFFFFFFFFFFFFFFFFFFFFFFFFFFFFFF AND PUSH20 0xFFFFFFFFFFFFFFFFFFFFFFFFFFFFFFFFFFFFFFFF AND DUP2 MSTORE PUSH1 0x20 ADD SWAP1 DUP2 MSTORE PUSH1 0x20 ADD PUSH1 0x0 KECCAK256 PUSH1 0x0 PUSH2 0x100 EXP DUP2 SLOAD DUP2 PUSH1 0xFF MUL NOT AND SWAP1 DUP4 ISZERO ISZERO MUL OR SWAP1 SSTORE POP CALLER PUSH20 0xFFFFFFFFFFFFFFFFFFFFFFFFFFFFFFFFFFFFFFFF AND DUP3 PUSH32 0x75C41E431CEA72FE4B16A192C07E674DDD0362C4CD0FDD702E38726661B3E883 TIMESTAMP DUP5 PUSH1 0x40 MLOAD PUSH2 0xB4D SWAP3 SWAP2 SWAP1 PUSH2 0x1532 JUMP JUMPDEST PUSH1 0x40 MLOAD DUP1 SWAP2 SUB SWAP1 LOG3 POP POP JUMP JUMPDEST PUSH1 0x1 PUSH1 0x20 MSTORE DUP2 PUSH1 0x0 MSTORE PUSH1 0x40 PUSH1 0x0 KECCAK256 PUSH1 0x20 MSTORE DUP1 PUSH1 0x0 MSTORE PUSH1 0x40 PUSH1 0x0 KECCAK256 PUSH1 0x0 SWAP2 POP SWAP2 POP SWAP1 SLOAD SWAP1 PUSH2 0x100 EXP SWAP1 DIV PUSH1 0xFF AND DUP2 JUMP JUMPDEST PUSH1 0x0 PUSH1 0x40 MLOAD SWAP1 POP SWAP1 JUMP JUMPDEST PUSH1 0x0 DUP1 REVERT JUMPDEST PUSH1 0x0 DUP1 REVERT JUMPDEST PUSH1 0x0 DUP2 SWAP1 POP SWAP2 SWAP1 POP JUMP JUMPDEST PUSH2 0xBAF DUP2 PUSH2 0xB9C JUMP JUMPDEST DUP2 EQ PUSH2 0xBBA JUMPI PUSH1 0x0 DUP1 REVERT JUMPDEST POP JUMP JUMPDEST PUSH1 0x0 DUP2 CALLDATALOAD SWAP1 POP PUSH2 0xBCC DUP2 PUSH2 0xBA6 JUMP JUMPDEST SWAP3 SWAP2 POP POP JUMP JUMPDEST PUSH1 0x0 PUSH1 0x20 DUP3 DUP5 SUB SLT ISZERO PUSH2 0xBE8 JUMPI PUSH2 0xBE7 PUSH2 0xB92 JUMP JUMPDEST JUMPDEST PUSH1 0x0 PUSH2 0xBF6 DUP5 DUP3 DUP6 ADD PUSH2 0xBBD JUMP JUMPDEST SWAP2 POP POP SWAP3 SWAP2 POP POP JUMP JUMPDEST PUSH1 0x0 PUSH20 0xFFFFFFFFFFFFFFFFFFFFFFFFFFFFFFFFFFFFFFFF DUP3 AND SWAP1 POP SWAP2 SWAP1 POP JUMP JUMPDEST PUSH1 0x0 PUSH2 0xC2A DUP3 PUSH2 0xBFF JUMP JUMPDEST SWAP1 POP SWAP2 SWAP1 POP JUMP JUMPDEST PUSH2 0xC3A DUP2 PUSH2 0xC1F JUMP JUMPDEST DUP3 MSTORE POP POP JUMP JUMPDEST PUSH1 0x0 DUP2 SWAP1 POP SWAP2 SWAP1 POP JUMP JUMPDEST PUSH2 0xC53 DUP2 PUSH2 0xC40 JUMP JUMPDEST DUP3 MSTORE POP POP JUMP JUMPDEST PUSH1 0x0 DUP2 MLOAD SWAP1 POP SWAP2 SWAP1 POP JUMP JUMPDEST PUSH1 0x0 DUP3 DUP3 MSTORE PUSH1 0x20 DUP3 ADD SWAP1 POP SWAP3 SWAP2 POP POP JUMP JUMPDEST PUSH1 0x0 JUMPDEST DUP4 DUP2 LT ISZERO PUSH2 0xC93 JUMPI DUP1 DUP3 ADD MLOAD DUP2 DUP5 ADD MSTORE PUSH1 0x20 DUP2 ADD SWAP1 POP PUSH2 0xC78 JUMP JUMPDEST PUSH1 0x0 DUP5 DUP5 ADD MSTORE POP POP POP POP JUMP JUMPDEST PUSH1 0x0 PUSH1 0x1F NOT PUSH1 0x1F DUP4 ADD AND SWAP1 POP SWAP2 SWAP1 POP JUMP JUMPDEST PUSH1 0x0 PUSH2 0xCBB DUP3 PUSH2 0xC59 JUMP JUMPDEST PUSH2 0xCC5 DUP2 DUP6 PUSH2 0xC64 JUMP JUMPDEST SWAP4 POP PUSH2 0xCD5 DUP2 DUP6 PUSH1 0x20 DUP7 ADD PUSH2 0xC75 JUMP JUMPDEST PUSH2 0xCDE DUP2 PUSH2 0xC9F JUMP JUMPDEST DUP5 ADD SWAP2 POP POP SWAP3 SWAP2 POP POP JUMP JUMPDEST PUSH1 0x0 DUP2 ISZERO ISZERO SWAP1 POP SWAP2 SWAP1 POP JUMP JUMPDEST PUSH2 0xCFE DUP2 PUSH2 0xCE9 JUMP JUMPDEST DUP3 MSTORE POP POP JUMP JUMPDEST PUSH1 0x0 PUSH1 0x80 DUP3 ADD SWAP1 POP PUSH2 0xD19 PUSH1 0x0 DUP4 ADD DUP8 PUSH2 0xC31 JUMP JUMPDEST PUSH2 0xD26 PUSH1 0x20 DUP4 ADD DUP7 PUSH2 0xC4A JUMP JUMPDEST DUP2 DUP2 SUB PUSH1 0x40 DUP4 ADD MSTORE PUSH2 0xD38 DUP2 DUP6 PUSH2 0xCB0 JUMP JUMPDEST SWAP1 POP PUSH2 0xD47 PUSH1 0x60 DUP4 ADD DUP5 PUSH2 0xCF5 JUMP JUMPDEST SWAP6 SWAP5 POP POP POP POP POP JUMP JUMPDEST PUSH2 0xD59 DUP2 PUSH2 0xC1F JUMP JUMPDEST DUP2 EQ PUSH2 0xD64 JUMPI PUSH1 0x0 DUP1 REVERT JUMPDEST POP JUMP JUMPDEST PUSH1 0x0 DUP2 CALLDATALOAD SWAP1 POP PUSH2 0xD76 DUP2 PUSH2 0xD50 JUMP JUMPDEST SWAP3 SWAP2 POP POP JUMP JUMPDEST PUSH1 0x0 DUP1 PUSH1 0x40 DUP4 DUP6 SUB SLT ISZERO PUSH2 0xD93 JUMPI PUSH2 0xD92 PUSH2 0xB92 JUMP JUMPDEST JUMPDEST PUSH1 0x0 PUSH2 0xDA1 DUP6 DUP3 DUP7 ADD PUSH2 0xBBD JUMP JUMPDEST SWAP3 POP POP PUSH1 0x20 PUSH2 0xDB2 DUP6 DUP3 DUP7 ADD PUSH2 0xD67 JUMP JUMPDEST SWAP2 POP POP SWAP3 POP SWAP3 SWAP1 POP JUMP JUMPDEST PUSH1 0x0 PUSH1 0x20 DUP3 ADD SWAP1 POP PUSH2 0xDD1 PUSH1 0x0 DUP4 ADD DUP5 PUSH2 0xCF5 JUMP JUMPDEST SWAP3 SWAP2 POP POP JUMP JUMPDEST PUSH1 0x0 PUSH1 0x60 DUP3 ADD SWAP1 POP PUSH2 0xDEC PUSH1 0x0 DUP4 ADD DUP7 PUSH2 0xC31 JUMP JUMPDEST PUSH2 0xDF9 PUSH1 0x20 DUP4 ADD DUP6 PUSH2 0xC4A JUMP JUMPDEST DUP2 DUP2 SUB PUSH1 0x40 DUP4 ADD MSTORE PUSH2 0xE0B DUP2 DUP5 PUSH2 0xCB0 JUMP JUMPDEST SWAP1 POP SWAP5 SWAP4 POP POP POP POP JUMP JUMPDEST PUSH1 0x0 DUP1 REVERT JUMPDEST PUSH1 0x0 DUP1 REVERT JUMPDEST PUSH32 0x4E487B7100000000000000000000000000000000000000000000000000000000 PUSH1 0x0 MSTORE PUSH1 0x41 PUSH1 0x4 MSTORE PUSH1 0x24 PUSH1 0x0 REVERT JUMPDEST PUSH2 0xE57 DUP3 PUSH2 0xC9F JUMP JUMPDEST DUP2 ADD DUP2 DUP2 LT PUSH8 0xFFFFFFFFFFFFFFFF DUP3 GT OR ISZERO PUSH2 0xE76 JUMPI PUSH2 0xE75 PUSH2 0xE1F JUMP JUMPDEST JUMPDEST DUP1 PUSH1 0x40 MSTORE POP POP POP JUMP JUMPDEST PUSH1 0x0 PUSH2 0xE89 PUSH2 0xB88 JUMP JUMPDEST SWAP1 POP PUSH2 0xE95 DUP3 DUP3 PUSH2 0xE4E JUMP JUMPDEST SWAP2 SWAP1 POP JUMP JUMPDEST PUSH1 0x0 PUSH8 0xFFFFFFFFFFFFFFFF DUP3 GT ISZERO PUSH2 0xEB5 JUMPI PUSH2 0xEB4 PUSH2 0xE1F JUMP JUMPDEST JUMPDEST PUSH2 0xEBE DUP3 PUSH2 0xC9F JUMP JUMPDEST SWAP1 POP PUSH1 0x20 DUP2 ADD SWAP1 POP SWAP2 SWAP1 POP JUMP JUMPDEST DUP3 DUP2 DUP4 CALLDATACOPY PUSH1 0x0 DUP4 DUP4 ADD MSTORE POP POP POP JUMP JUMPDEST PUSH1 0x0 PUSH2 0xEED PUSH2 0xEE8 DUP5 PUSH2 0xE9A JUMP JUMPDEST PUSH2 0xE7F JUMP JUMPDEST SWAP1 POP DUP3 DUP2 MSTORE PUSH1 0x20 DUP2 ADD DUP5 DUP5 DUP5 ADD GT ISZERO PUSH2 0xF09 JUMPI PUSH2 0xF08 PUSH2 0xE1A JUMP JUMPDEST JUMPDEST PUSH2 0xF14 DUP5 DUP3 DUP6 PUSH2 0xECB JUMP JUMPDEST POP SWAP4 SWAP3 POP POP POP JUMP JUMPDEST PUSH1 0x0 DUP3 PUSH1 0x1F DUP4 ADD SLT PUSH2 0xF31 JUMPI PUSH2 0xF30 PUSH2 0xE15 JUMP JUMPDEST JUMPDEST DUP2 CALLDATALOAD PUSH2 0xF41 DUP5 DUP3 PUSH1 0x20 DUP7 ADD PUSH2 0xEDA JUMP JUMPDEST SWAP2 POP POP SWAP3 SWAP2 POP POP JUMP JUMPDEST PUSH1 0x0 DUP1 PUSH1 0x40 DUP4 DUP6 SUB SLT ISZERO PUSH2 0xF61 JUMPI PUSH2 0xF60 PUSH2 0xB92 JUMP JUMPDEST JUMPDEST PUSH1 0x0 PUSH2 0xF6F DUP6 DUP3 DUP7 ADD PUSH2 0xBBD JUMP JUMPDEST SWAP3 POP POP PUSH1 0x20 DUP4 ADD CALLDATALOAD PUSH8 0xFFFFFFFFFFFFFFFF DUP2 GT ISZERO PUSH2 0xF90 JUMPI PUSH2 0xF8F PUSH2 0xB97 JUMP JUMPDEST JUMPDEST PUSH2 0xF9C DUP6 DUP3 DUP7 ADD PUSH2 0xF1C JUMP JUMPDEST SWAP2 POP POP SWAP3 POP SWAP3 SWAP1 POP JUMP JUMPDEST PUSH32 0x4E487B7100000000000000000000000000000000000000000000000000000000 PUSH1 0x0 MSTORE PUSH1 0x22 PUSH1 0x4 MSTORE PUSH1 0x24 PUSH1 0x0 REVERT JUMPDEST PUSH1 0x0 PUSH1 0x2 DUP3 DIV SWAP1 POP PUSH1 0x1 DUP3 AND DUP1 PUSH2 0xFED JUMPI PUSH1 0x7F DUP3 AND SWAP2 POP JUMPDEST PUSH1 0x20 DUP3 LT DUP2 SUB PUSH2 0x1000 JUMPI PUSH2 0xFFF PUSH2 0xFA6 JUMP JUMPDEST JUMPDEST POP SWAP2 SWAP1 POP JUMP JUMPDEST PUSH32 0x446F63756D656E74206E6F7420666F756E642E00000000000000000000000000 PUSH1 0x0 DUP3 ADD MSTORE POP JUMP JUMPDEST PUSH1 0x0 PUSH2 0x103C PUSH1 0x13 DUP4 PUSH2 0xC64 JUMP JUMPDEST SWAP2 POP PUSH2 0x1047 DUP3 PUSH2 0x1006 JUMP JUMPDEST PUSH1 0x20 DUP3 ADD SWAP1 POP SWAP2 SWAP1 POP JUMP JUMPDEST PUSH1 0x0 PUSH1 0x20 DUP3 ADD SWAP1 POP DUP2 DUP2 SUB PUSH1 0x0 DUP4 ADD MSTORE PUSH2 0x106B DUP2 PUSH2 0x102F JUMP JUMPDEST SWAP1 POP SWAP2 SWAP1 POP JUMP JUMPDEST PUSH32 0x4F6E6C7920746865206F776E65722063616E206772616E74206163636573732E PUSH1 0x0 DUP3 ADD MSTORE POP JUMP JUMPDEST PUSH1 0x0 PUSH2 0x10A8 PUSH1 0x20 DUP4 PUSH2 0xC64 JUMP JUMPDEST SWAP2 POP PUSH2 0x10B3 DUP3 PUSH2 0x1072 JUMP JUMPDEST PUSH1 0x20 DUP3 ADD SWAP1 POP SWAP2 SWAP1 POP JUMP JUMPDEST PUSH1 0x0 PUSH1 0x20 DUP3 ADD SWAP1 POP DUP2 DUP2 SUB PUSH1 0x0 DUP4 ADD MSTORE PUSH2 0x10D7 DUP2 PUSH2 0x109B JUMP JUMPDEST SWAP1 POP SWAP2 SWAP1 POP JUMP JUMPDEST PUSH32 0x41636365737320616C7265616479206772616E7465642E000000000000000000 PUSH1 0x0 DUP3 ADD MSTORE POP JUMP JUMPDEST PUSH1 0x0 PUSH2 0x1114 PUSH1 0x17 DUP4 PUSH2 0xC64 JUMP JUMPDEST SWAP2 POP PUSH2 0x111F DUP3 PUSH2 0x10DE JUMP JUMPDEST PUSH1 0x20 DUP3 ADD SWAP1 POP SWAP2 SWAP1 POP JUMP JUMPDEST PUSH1 0x0 PUSH1 0x20 DUP3 ADD SWAP1 POP DUP2 DUP2 SUB PUSH1 0x0 DUP4 ADD MSTORE PUSH2 0x1143 DUP2 PUSH2 0x1107 JUMP JUMPDEST SWAP1 POP SWAP2 SWAP1 POP JUMP JUMPDEST PUSH32 0x4F6E6C7920746865206F776E65722063616E207265766F6B6520616363657373 PUSH1 0x0 DUP3 ADD MSTORE PUSH32 0x2E00000000000000000000000000000000000000000000000000000000000000 PUSH1 0x20 DUP3 ADD MSTORE POP JUMP JUMPDEST PUSH1 0x0 PUSH2 0x11A6 PUSH1 0x21 DUP4 PUSH2 0xC64 JUMP JUMPDEST SWAP2 POP PUSH2 0x11B1 DUP3 PUSH2 0x114A JUMP JUMPDEST PUSH1 0x40 DUP3 ADD SWAP1 POP SWAP2 SWAP1 POP JUMP JUMPDEST PUSH1 0x0 PUSH1 0x20 DUP3 ADD SWAP1 POP DUP2 DUP2 SUB PUSH1 0x0 DUP4 ADD MSTORE PUSH2 0x11D5 DUP2 PUSH2 0x1199 JUMP JUMPDEST SWAP1 POP SWAP2 SWAP1 POP JUMP JUMPDEST PUSH32 0x416363657373206E6F74206772616E7465642E00000000000000000000000000 PUSH1 0x0 DUP3 ADD MSTORE POP JUMP JUMPDEST PUSH1 0x0 PUSH2 0x1212 PUSH1 0x13 DUP4 PUSH2 0xC64 JUMP JUMPDEST SWAP2 POP PUSH2 0x121D DUP3 PUSH2 0x11DC JUMP JUMPDEST PUSH1 0x20 DUP3 ADD SWAP1 POP SWAP2 SWAP1 POP JUMP JUMPDEST PUSH1 0x0 PUSH1 0x20 DUP3 ADD SWAP1 POP DUP2 DUP2 SUB PUSH1 0x0 DUP4 ADD MSTORE PUSH2 0x1241 DUP2 PUSH2 0x1205 JUMP JUMPDEST SWAP1 POP SWAP2 SWAP1 POP JUMP JUMPDEST PUSH32 0x446F63756D656E7420616C7265616479206E6F746172697A65642E0000000000 PUSH1 0x0 DUP3 ADD MSTORE POP JUMP JUMPDEST PUSH1 0x0 PUSH2 0x127E PUSH1 0x1B DUP4 PUSH2 0xC64 JUMP JUMPDEST SWAP2 POP PUSH2 0x1289 DUP3 PUSH2 0x1248 JUMP JUMPDEST PUSH1 0x20 DUP3 ADD SWAP1 POP SWAP2 SWAP1 POP JUMP JUMPDEST PUSH1 0x0 PUSH1 0x20 DUP3 ADD SWAP1 POP DUP2 DUP2 SUB PUSH1 0x0 DUP4 ADD MSTORE PUSH2 0x12AD DUP2 PUSH2 0x1271 JUMP JUMPDEST SWAP1 POP SWAP2 SWAP1 POP JUMP JUMPDEST PUSH1 0x0 DUP2 SWAP1 POP DUP2 PUSH1 0x0 MSTORE PUSH1 0x20 PUSH1 0x0 KECCAK256 SWAP1 POP SWAP2 SWAP1 POP JUMP JUMPDEST PUSH1 0x0 PUSH1 0x20 PUSH1 0x1F DUP4 ADD DIV SWAP1 POP SWAP2 SWAP1 POP JUMP JUMPDEST PUSH1 0x0 DUP3 DUP3 SHL SWAP1 POP SWAP3 SWAP2 POP POP JUMP JUMPDEST PUSH1 0x0 PUSH1 0x8 DUP4 MUL PUSH2 0x1316 PUSH32 0xFFFFFFFFFFFFFFFFFFFFFFFFFFFFFFFFFFFFFFFFFFFFFFFFFFFFFFFFFFFFFFFF DUP3 PUSH2 0x12D9 JUMP JUMPDEST PUSH2 0x1320 DUP7 DUP4 PUSH2 0x12D9 JUMP JUMPDEST SWAP6 POP DUP1 NOT DUP5 AND SWAP4 POP DUP1 DUP7 AND DUP5 OR SWAP3 POP POP POP SWAP4 SWAP3 POP POP POP JUMP JUMPDEST PUSH1 0x0 DUP2 SWAP1 POP SWAP2 SWAP1 POP JUMP JUMPDEST PUSH1 0x0 PUSH2 0x135D PUSH2 0x1358 PUSH2 0x1353 DUP5 PUSH2 0xC40 JUMP JUMPDEST PUSH2 0x1338 JUMP JUMPDEST PUSH2 0xC40 JUMP JUMPDEST SWAP1 POP SWAP2 SWAP1 POP JUMP JUMPDEST PUSH1 0x0 DUP2 SWAP1 POP SWAP2 SWAP1 POP JUMP JUMPDEST PUSH2 0x1377 DUP4 PUSH2 0x1342 JUMP JUMPDEST PUSH2 0x138B PUSH2 0x1383 DUP3 PUSH2 0x1364 JUMP JUMPDEST DUP5 DUP5 SLOAD PUSH2 0x12E6 JUMP JUMPDEST DUP3 SSTORE POP POP POP POP JUMP JUMPDEST PUSH1 0x0 SWAP1 JUMP JUMPDEST PUSH2 0x13A0 PUSH2 0x1393 JUMP JUMPDEST PUSH2 0x13AB DUP2 DUP5 DUP5 PUSH2 0x136E JUMP JUMPDEST POP POP POP JUMP JUMPDEST JUMPDEST DUP2 DUP2 LT ISZERO PUSH2 0x13CF JUMPI PUSH2 0x13C4 PUSH1 0x0 DUP3 PUSH2 0x1398 JUMP JUMPDEST PUSH1 0x1 DUP2 ADD SWAP1 POP PUSH2 0x13B1 JUMP JUMPDEST POP POP JUMP JUMPDEST PUSH1 0x1F DUP3 GT ISZERO PUSH2 0x1414 JUMPI PUSH2 0x13E5 DUP2 PUSH2 0x12B4 JUMP JUMPDEST PUSH2 0x13EE DUP5 PUSH2 0x12C9 JUMP JUMPDEST DUP2 ADD PUSH1 0x20 DUP6 LT ISZERO PUSH2 0x13FD JUMPI DUP2 SWAP1 POP JUMPDEST PUSH2 0x1411 PUSH2 0x1409 DUP6 PUSH2 0x12C9 JUMP JUMPDEST DUP4 ADD DUP3 PUSH2 0x13B0 JUMP JUMPDEST POP POP JUMPDEST POP POP POP JUMP JUMPDEST PUSH1 0x0 DUP3 DUP3 SHR SWAP1 POP SWAP3 SWAP2 POP POP JUMP JUMPDEST PUSH1 0x0 PUSH2 0x1437 PUSH1 0x0 NOT DUP5 PUSH1 0x8 MUL PUSH2 0x1419 JUMP JUMPDEST NOT DUP1 DUP4 AND SWAP2 POP POP SWAP3 SWAP2 POP POP JUMP JUMPDEST PUSH1 0x0 PUSH2 0x1450 DUP4 DUP4 PUSH2 0x1426 JUMP JUMPDEST SWAP2 POP DUP3 PUSH1 0x2 MUL DUP3 OR SWAP1 POP SWAP3 SWAP2 POP POP JUMP JUMPDEST PUSH2 0x1469 DUP3 PUSH2 0xC59 JUMP JUMPDEST PUSH8 0xFFFFFFFFFFFFFFFF DUP2 GT ISZERO PUSH2 0x1482 JUMPI PUSH2 0x1481 PUSH2 0xE1F JUMP JUMPDEST JUMPDEST PUSH2 0x148C DUP3 SLOAD PUSH2 0xFD5 JUMP JUMPDEST PUSH2 0x1497 DUP3 DUP3 DUP6 PUSH2 0x13D3 JUMP JUMPDEST PUSH1 0x0 PUSH1 0x20 SWAP1 POP PUSH1 0x1F DUP4 GT PUSH1 0x1 DUP2 EQ PUSH2 0x14CA JUMPI PUSH1 0x0 DUP5 ISZERO PUSH2 0x14B8 JUMPI DUP3 DUP8 ADD MLOAD SWAP1 POP JUMPDEST PUSH2 0x14C2 DUP6 DUP3 PUSH2 0x1444 JUMP JUMPDEST DUP7 SSTORE POP PUSH2 0x152A JUMP JUMPDEST PUSH1 0x1F NOT DUP5 AND PUSH2 0x14D8 DUP7 PUSH2 0x12B4 JUMP JUMPDEST PUSH1 0x0 JUMPDEST DUP3 DUP2 LT ISZERO PUSH2 0x1500 JUMPI DUP5 DUP10 ADD MLOAD DUP3 SSTORE PUSH1 0x1 DUP3 ADD SWAP2 POP PUSH1 0x20 DUP6 ADD SWAP5 POP PUSH1 0x20 DUP2 ADD SWAP1 POP PUSH2 0x14DB JUMP JUMPDEST DUP7 DUP4 LT ISZERO PUSH2 0x151D JUMPI DUP5 DUP10 ADD MLOAD PUSH2 0x1519 PUSH1 0x1F DUP10 AND DUP3 PUSH2 0x1426 JUMP JUMPDEST DUP4 SSTORE POP JUMPDEST PUSH1 0x1 PUSH1 0x2 DUP9 MUL ADD DUP9 SSTORE POP POP POP JUMPDEST POP POP POP POP POP POP JUMP JUMPDEST PUSH1 0x0 PUSH1 0x40 DUP3 ADD SWAP1 POP PUSH2 0x1547 PUSH1 0x0 DUP4 ADD DUP6 PUSH2 0xC4A JUMP JUMPDEST DUP2 DUP2 SUB PUSH1 0x20 DUP4 ADD MSTORE PUSH2 0x1559 DUP2 DUP5 PUSH2 0xCB0 JUMP JUMPDEST SWAP1 POP SWAP4 SWAP3 POP POP POP JUMP INVALID LOG2 PUSH5 0x6970667358 0x22 SLT KECCAK256 0x4D SLT 0xCE 0xBD CODECOPY 0xF7 DUP7 BYTE SWAP14 0x4C SLT 0xFB CALL LOG1 0xC5 0x29 0xD4 0xDB DUP4 0xBD 0xD8 0xA9 DUP14 PUSH16 0x8B12C414F16D411364736F6C63430008 GT STOP CALLER "},"methodIdentifiers":{"documents(bytes32)":"2b2805db","getDocumentDetails(bytes32)":"8e4d0f40","grantAccess(bytes32,address)":"40554c3a","grantedAccess(bytes32,address)":"ba3e92f3","hasAccess(bytes32,address)":"83177db3","notarizeDocument(bytes32,string)":"ad3e0420","revokeAccess(bytes32,address)":"8d53b208"}}}}}